:020000040000FA
:10000000600200105D01000061010000630100005A
:1000100065010000670100006901000000000000A8
:100020000000000000000000000000006B01000064
:100030006D010000000000006F0100007101000070
:1000400073010000B5090000730100007301000096
:1000500073010000730100007301000073010000D0
:1000600073010000730100007301000073010000C0
:1000700073010000730100007301000073010000B0
:1000800073010000730100007301000073010000A0
:100090007301000073010000730100007301000090
:1000A0007301000073010000730100007301000080
:1000B0007301000073010000730100007301000070
:1000C0007301000000F002F800F03BF80AA090E88D
:1000D000000C82448344AAF10107DA4501D100F003
:1000E00030F8AFF2090EBAE80F0013F0010F18BF95
:1000F000FB1A43F0010318479C290000AC290000BB
:100100000023002400250026103A28BF78C1FBD820
:10011000520728BF30C148BF0B607047662900F006
:10012000EB80002070471FB5AFF3008000F066F849
:1001300004000020002101F071FCE0601FBD10B53B
:1001400010BD00F0B3F81146FFF7EDFF00F0BFF966
:1001500001F044F8FFF7F3FF01F086F80848004784
:10016000FEE7FEE7FEE7FEE7FEE7FEE7FEE7FEE767
:10017000FEE7FEE703480449024A044B70470000CB
:10018000C500000060000010600200106000001058
:100190000FB408491CB506AB6A467944009005982F
:1001A00000F013F80020694600F022F81CBC5DF84E
:1001B00014FB0000530000007047704770470000B8
:1001C00001694A1C02610878704710B50C4619464F
:1001D00090B0CDE9024200220692044A7A44CDE969
:1001E000042001A800F08CFC10B010BDE1FFFFFF5F
:1001F0000A6802F8010B0A60704700000148704766
:10020000704700002000001030B5B0F10A024FEA3C
:10021000900E71F100034EEA817EB0EB0E0061EBAF
:1002200091014FEA101E4EEA017E10EB0E0041EBE9
:1002300011114FEA102E4EEA016E10EB0E0041EB49
:1002400011214FEA104E4EEA014E10EB0E0041EB29
:100250001141401841F100014FEAD00040EA4170DD
:100260004FEAD10110EB80054FEA810444EA907413
:1002700044EB01046D1944EB0404521BA3414FF0FD
:10028000000348BF0A3200D530BD401C41F10001D7
:1002900030BD4FF00A01B0FBF1F202FB1101104634
:1002A0007047000000487047000000107546FFF7D7
:1002B000F9FFAE4605006946534620F00700854623
:1002C00018B020B5FFF756FFBDE820404FF00006FC
:1002D0004FF000074FF000084FF0000B21F007012E
:1002E000AC46ACE8C009ACE8C009ACE8C009ACE871
:1002F000C0098D467047704700F09ABDFFFFFFFFB1
:10030000FF48006840F00800FD49C439C1F8C40046
:100310005020FC4908608320FB49087300200871C5
:100320001A20087003200873072008727047002203
:1003300007E0002100E0491C41F270739942FAD3B2
:10034000521C8242F5D3704710B5044600BFEE48F8
:10035000007D10F0200FFAD0EB4804700A20FFF760
:10036000E6FF10BD10B5044603E02078FFF7ECFF70
:10037000641C20780028F8D110BD00BFE248007D41
:1003800010F0010FFAD0E0480078704730B504460D
:100390007CB10A20B4FBF0F52846FFF7F7FF0A20EE
:1003A000B4FBF0F100FB11403030C5B22846FFF736
:1003B000CBFF30BD10B504464FF4FF00D349C861F0
:1003C000E00388614FF48060C861400088610A20C2
:1003D000FFF7ADFF4FF40060CC49C86110BD10B508
:1003E00004464FF4FF00C949C861E00388614FF437
:1003F00080608861400088610A20FFF798FF4FF411
:100400000060C249C86110BD10B5044603E0207801
:10041000FFF7E5FF641C20780028F8D110BD00B577
:10042000BA48006840F4FF00B84908600846006810
:1004300040F4806008600846006840F4006008608E
:100440003820FFF7B7FF0E20FFF7B4FF0120FFF7BA
:10045000B1FF00BD10B5012000F0D1FA00BF0120AE
:10046000002805DAC000AA496FF00202885404E0AF
:100470000120C000A7490122885400BF00BF01200D
:100480008040012149094FF0E02202EB8101C1F8CF
:10049000000100BFA0A0FFF765FF10BD00B59848A0
:1004A000006840F002009649C439C1F8C4000E202B
:1004B0004FF04021C8609E488861032048610220B7
:1004C0004860012048609BA0FFF74CFF00BD10B5BD
:1004D0008E48006A40F400208C4908620846C06BD0
:1004E00040F07C40C8630846006A40F080500862D3
:1004F0008448406840F4803082494860084640683B
:1005000040F4802048600846406840F4801048600D
:100510007B48006840F480507949C439C1F8C40070
:1005200089488A490860FFF7EBFEFFF7B7FFFFF73E
:1005300091FFFFF774FF0120FFF73CFF17E08020D9
:10054000FFF738FF82A0FFF75FFF7048806B40F431
:1005500000206E4988636420FFF7E9FE6B48C06B9A
:1005600040F400206949C8636420FFF7E0FEE6E735
:1005700030B589B000BF7548C06910F0004FFAD09F
:100580007248C069C0F30B15284601F0BFFDCDE9E4
:10059000060171A00CC8069801F0B8FBCDE9040172
:1005A0006FA00CC8049801F0C7FDCDE902016CA052
:1005B0000CC8029801F0A4FECDE9000101F044FA54
:1005C0000446204609B030BD70B586B000BF5F4814
:1005D000806910F0004FFAD05C488069C0F30B14BA
:1005E000204601F093FDCDE904015FA00CC80498FA
:1005F00001F0A2FDCDE9020157A00CC8029801F05C
:1006000085FBCDE9000101F01FFA06465849304646
:1006100002F080F80546284606B070BD7FB500BFE1
:100620004A48406910F0004FFAD048484069C0F38A
:100630000B14642104FB01F001F068FDCDE9020117
:1006400045A00CC8029801F061FBCDE9000101F062
:10065000FBF90546284604B070BD2DE9F04192B083
:10066000002400250026434FDFF80C812548406810
:1006700040F48030234948600846406840F48020B8
:1006800048600846406840F4801048601C48006894
:1006900040F480501A49C439C1F8C4002A482B4993
:1006A00008600846006840F0807008608020FFF70E
:1006B00081FE2648006840F008002449086008468A
:1006C000006820F0040008600846006820F002007E
:1006D0000860FFF74DFF0446204601F0B7FF0B46C8
:1006E0000246CDE9000125A10CA8FFF751FD0CA899
:1006F000FFF738FE0CA8FFF787FEC02048E0000097
:10070000C4C00F4000C0024000C0004000C009202B
:1007100018ED00E000E400E0496E746572727570D7
:100720007420436F6E66696720446F6E650D0A0022
:1007300040420F0054696D657220436F6E666967B1
:1007400020446F6E650D0A00000320000040034046
:1007500077616974696E67000000000000FEAF40B9
:1007600000000000000059406666666666660A4042
:100770000000C8420000C841000070414D6F69731D
:1007800074757265203D2025302E32660000000011
:10079000FFF710FE9EA0FFF7E5FD9E48006840F0C1
:1007A00004009C4908600846006820F002000860C8
:1007B0000846006820F008000860FFF705FF0546BE
:1007C000284601F043FF0B460246CDE9000192A105
:1007D00007A8FFF7DDFC07A8FFF716FE07A8FFF73D
:1007E000C1FD4FF4FA70FFF7A2FD8A48006840F09F
:1007F0000200884908600846006820F0040008608C
:100800000846006820F0080008600120FFF7D2FDCC
:100810008020FFF7CFFDFFF701FF0646304601F0CD
:1008200015FF0B460246CDE900017FA102A8FFF7A4
:10083000AFFC02A8FFF796FD75A0FFF793FD02A895
:10084000FFF7E2FD6420FFF772FD7CA0FFF78AFD51
:100850002946384601F02EFF2AD22146404602F0B2
:1008600003F825D279A0FFF77DFD69A0FFF77AFD97
:100870000120FFF79FFD8020FFF79CFD77A0FFF789
:10088000C3FD7A48806B40F080507849886342F21B
:100890001070FFF74CFD0120FFF78CFD7348C06B13
:1008A00040F080507149C8636420FFF740FD78E054
:1008B0002946384601F0FEFE1AD22146404601F094
:1008C000F9FE15D26AA0FFF74DFD51A0FFF74AFDD2
:1008D0000120FFF76FFD8020FFF76CFD67A0FFF799
:1008E00093FD6420FFF723FD0120FFF763FD58E02F
:1008F0002946384601F0B8FF2AD22146404601F089
:10090000B3FF25D261A0FFF72DFD41A0FFF72AFD1F
:100910000120FFF74FFD8020FFF74CFD5FA0FFF7A0
:1009200073FD5248806B40F080505049886341F21B
:100930008830FFF7FCFC0120FFF73CFD4B48C06B03
:1009400040F080504949C8636420FFF7F0FC28E07C
:100950002946384601F088FF1AD22146404601F068
:10096000A9FE15D251A0FFF7FDFC29A0FFF7FAFC64
:100970000120FFF71FFD8020FFF71CFD4EA0FFF7B1
:1009800043FD6420FFF7D3FC0120FFF713FD08E0CF
:100990004DA0FFF7E7FC1EA0FFF7E4FC6420FFF783
:1009A000C6FC6420FFF7C3FC0120FFF703FD12B073
:1009B000BDE8F08110B548A0FFF7D4FC0120FFF797
:1009C000F9FC8020FFF7F6FC48A0FFF71DFD0A2088
:1009D000FFF7ADFC0120FFF7EDFCFFF73EFE2348DB
:1009E000406B80F08060214948636420FFF79FFCE2
:1009F00001204FF04021086000F001F810BD00F028
:100A00001F0101228A403D49430941F823207047D4
:100A10000D0A00000040034054656D70203D202504
:100A2000302E3266202743005761746572206C7641
:100A30006C203D2025302E326600000052454C418E
:100A400059204953204F4E310D0A000052454C4168
:100A500059204F4E203130205365630052454C41A0
:100A600059204953204F4E5F3100000000C009203B
:100A700052454C4159204F46465F310052454C414A
:100A800059204953204F46465F31000052454C41A2
:100A900059204F4E203520536563000052454C418C
:100AA00059204953204F4E5F3200000052454C41BF
:100AB00059204F46465F320052454C415920495318
:100AC000204F46465F3200004E6F7920616E7920DC
:100AD0006361736500000000496E742066726F6D7B
:100AE0002054696D65720D0A00000000494E5420C3
:100AF00066726F6D2054696D6572000080E200E0DF
:100B00002DE9F05F4FF0000B044689464FF0010AD3
:100B1000C0F820B02046E168884700287DD025280D
:100B200002D0D4E9012185E0464F00267F442046CB
:100B3000E16888472028054607DB312D05D2781962
:100B400010F8200C08B10643F1E7B00701D526F0F4
:100B50000406C4F81CB00027C4F818B02A2D10D120
:100B6000204659F8041B04EB87029161E16888472D
:100B7000012F054628D1E069002830DA26F020064A
:100B80002DE0A5F1300052460A2801461AD2CAB11A
:100B900004EB870092468046816108E0D8F818008F
:100BA00000EB800005EB40003038C8F81800204604
:100BB000E168884705465046A5F130010A2901D26F
:100BC0000028EBD1012F0AD02E2D08D12046E16854
:100BD00088477F1C0546022F46F02006BEDBA06931
:100BE000002803DA404246F00106A061F00701D078
:100BF00026F010068DB1A5F14100192802D8203544
:100C000046F400664A462946204626604E46FFF7CF
:100C100085FA60B1012804D100E010E006F1040972
:100C200078E7F61D26F0070000F1080972E7D4E91D
:100C3000012128469047206A401C20626AE7206A0A
:100C4000BDE8F09FBE1E000070472DE9FF4F0C4627
:100C500098468DB0D2E90010DDF868A0CDE9081003
:100C6000C0F30A550DB94FF0FF35002108464FF08B
:100C70000000099900F44000002905DA00EB80002B
:100C80004FF4400101EA50004FEA905BBBF1010FC5
:100C900001DD4FF0FF3BDDE9080150EA410016D1CC
:100CA000BAF1010F02D16FEA080207E0302101E03A
:100CB0002154401C4045FBDB4046002200212154CA
:100CC0000D99C1E9010A0A6011B0BDE8F08FA5F2E3
:100CD000FF3544F610504543CBF100000B904FEA2E
:100CE0002549BAF1000F03D1A9EB08056D1C01E0FD
:100CF000C8F100050B9A002D00DC5A46294601DA9E
:100D0000C5F1000103A800F001FADDE9081000F0C8
:100D1000B5FAA0F500501F388DE807000398002DA4
:100D200009DD42F21F015A46084403A903906846B0
:100D300000F015FD08E0A0F500505A461F3803A941
:100D40000390684600F01FFD8DE807000004000CCA
:100D500003D04FF0FF356E0801E00E461546BAF19C
:100D6000000F25D1474607E031462846FFF74CFAE9
:100D7000303205460E46E2557F1EF5D50023012789
:100D800086EA030185EA03000843CDF81C8003D0FE
:100D9000002709F1010005E02078302803D1002761
:100DA000A9F101008146002FCDF8189099D034E0C8
:100DB00000200A9007460AE0112F0FDA3146284634
:100DC000FFF722FA303205460E46E2557F1C00231B
:100DD00086EA030185EA03000843EDD1002386EA91
:100DE000030185EA0300084310D13846002104E0DE
:100DF000235C625C6354491C2254401E8142F7DB31
:100E0000A7EB0800401ECDE9060706E00A9820B9C6
:100E10004FF011084FF0000A63E7079A0020A05432
:100E20000D98C0F808A007994160069901604BE74A
:100E30002DE9F04F04468846D21D22F0070091B0FC
:100E4000D0E90010CDE902100146029800F0D1FD72
:100E50000399CA0F4FF02D0106D122682B21930769
:100E600002D4202101EAC20103288B4601D00728C1
:100E700006DB5B4602464146204600F009F905E1E3
:100E80002068800601D5E76900E006271120B8F147
:100E9000650F1ED0B8F1660F29D0B8F1670F62D187
:100EA000012F00DA01270023112F009300DC3846C0
:100EB000034602AA06A90EA8FFF7C7FE20683D4612
:100EC0000026000734D40F98A84200DA054606A889
:100ED00027E00023112F009300DA781C034602AAB2
:100EE00006A90EA8FFF7B1FE00267D1C26E001230F
:100EF0004FF0004902AA06A90EA800933B46FFF74F
:100F0000A4FEDDE90F50002610B90E99781C0D18CB
:100F1000781B02D47D1CC0F1FF36A5EB070A22E046
:100F20006D1E012D04DD411911F8011C3029F7D087
:100F30000E98B84202DA10F1040F03DA4FF0010AFA
:100F40000E980FE0002802DC2D1A064404E0401C35
:100F5000A84201DD0E9D6D1C0E98801B00F1010A58
:100F60004FF0004081462068000703D4AA4501DB0A
:100F70004FF0FF3A0020B9F1004F0DF117078DF83F
:100F8000170024D04FF002082B20B9F1000F019078
:100F90000BDA2D20C9F10009019006E04846FFF761
:100FA00078F93031814607F8011DB8F10000A8F149
:100FB0000108F3DCB9F1000FF0D1019807F8010D39
:100FC00021684520090500D4652007F8010D04A813
:100FD000C01B00F107085FEA0B0000D00120411997
:100FE00001EBEA7101EB0800A169081A401EA0613B
:100FF0002068C00602D42046AFF30080BBF1000F8A
:1010000006D05846D4E901219047206A401C20624E
:101010002068C00625D52046AFF3008021E0002ED1
:1010200007DB0F98B04204DD06A8D4E90121805DFA
:1010300002E0D4E9012130209047206A401C206260
:10104000761CAAF101005FEA000A0AD1FFF7D6F880
:10105000C0680168405CD4E901219047206A401CC7
:101060002062281EA5F10105D9DC07E0D4E90121A1
:1010700017F8010B9047206A401C2062B8F100006D
:10108000A8F10108F2DC2046AFF3008002201BE645
:101090002DE9F04104461F4603260168072A01F4A2
:1010A000006003DB15A520B915A502E015A500B960
:1010B00015A521F010002060A069C01EA0610FB12D
:1010C000401EA0612046AFF300800FB9206A06E001
:1010D000D4E9012138469047206A401C2062C01C98
:1010E000206204E0D4E9012115F8010B9047761E37
:1010F000F8D22046AFF30080BDE8F0814E414E00AB
:101100006E616E00494E4600696E66002DE9F0473B
:10111000174681468AB0304A7A4407A838CA01F592
:10112000DC511B3138C038CA04A8372238C091FBC3
:10113000F2F0A0F1800502FB10141B3C02D56442C2
:10114000012000E00020DFF890A080460026FA444D
:10115000AAF1B20A0DE0E00709D03A4606EB4600D4
:101160000AEB800107A800F00EFB07AB07C3641071
:10117000761C002CEFD1DFF860A001AEFA44AAF192
:10118000A40A16E0E80712D00AEB041090E80E005B
:1011900086E80E00C068F84202D1039838440390F4
:1011A0003A4601A904A800F0EEFA04AB07C36D109B
:1011B000641C002DE6D13A46B8F1000F07A904A837
:1011C00002D000F0CCFA01E000F0DDFAA9E8070057
:1011D0000AB0BDE8F0870000601900000446AFF3D4
:1011E00000802046FEF7B6FF4FF0013C50F8042B7C
:1011F00051F8043B9A4221D1A2EB0C03934313EA2A
:10120000CC1317D150F8042B51F8043B9A4215D156
:10121000A2EB0C03934313EACC130BD150F8042B2D
:1012200051F8043B9A4209D1A2EB0C03934313EA11
:10123000CC13DBD04FF0000070470000D01A01BA89
:10124000B1FA81F101F0180122FA01F0CB40C1F1AD
:101250002001DBB2C0B2C01A2CFA01F3D11A9143BB
:1012600011EAC311E6D1704703494FF01800ABBE35
:101270007047000083F0FFFF260002005FEA400C89
:1012800008BF91F0000F4FEA8C234FEAC12243EAD6
:1012900051514FEA1C5018BF00F5F0404FEA3000A2
:1012A00018BF41F000415FEA6C5C00F02980BCF19E
:1012B000FF3F08BF40F080407047130C06BF120488
:1012C0004FF0100C4FF0000C130E04BF12020CF183
:1012D000080C130F04BF12010CF1040C930F04BF90
:1012E00092000CF1020CD30F04BF52000CF1010C60
:1012F00011464FF00002A0F11F00A0EB0C00704758
:1013000011F0004F08BF704731F000413FF4D5AFF6
:101310000B0C06BF09044FF0100C4FF0000C0B0E25
:1013200004BF09020CF1080C0B0F04BF09010CF1FA
:10133000040C8B0F04BF89000CF1020CCB0F04BF0F
:1013400049000CF1010CCCF12003A0EB0C0022FAB7
:1013500003F302FA0CF241EA030100F101007047C5
:1013600020F07F4C80EA030023F07F47ACEB0703BB
:1013700003F57C5300F0004003F1FF032DE98049A1
:101380004FEA154B09B44FEA144325EA0B4E24EA01
:1013900003480FF2042606EB132749083E785FEA5C
:1013A000320203FB0667C7F5000707FB06F64FEAA4
:1013B00054374FEAD64606F1020607FB066CCCF11D
:1013C000005C4FEA1C472CEA074C07FB06F40CFBB9
:1013D00006F504EB15464FEA961634BF00204FF091
:1013E00000404FEAD13706FB07FC4FEA1C4C0CFBD0
:1013F0000BF7D21B03FB0CF761EB07010CFB0EF79D
:10140000B0EB074072EB17420CFB08F734BFA2EBBE
:101410000742B2EB074261EB17414FEA0C444FEA37
:10142000910706FB07FC4FEA1C4C0CFB0BF7B0EBDB
:10143000C74072EB573203FB0CF734BFA2EBC74235
:10144000B2EBC74261EB57310CFB0EF7B0EBC700B4
:1014500072EB57720CFB08F734BFA2EBC702B2EB7A
:10146000C70261EB5771039F4FEA816141EA921114
:1014700004EBCC044FEAD1374FEA826206FB07FC4B
:1014800042EA90124FEA80604FEA1C4C0CFB0BF7CB
:10149000D21B03FB0CF761EB07010CFB0EF7B0EB63
:1014A000074072EB17420CFB08F734BFA2EB074270
:1014B000B2EB074261EB17414FEA8C554FEA9107B7
:1014C00004EB9C2406FB07FC4FEA1C4C0CFB0BF7BF
:1014D000B0EBC74072EB573203FB0CF734BFA2EB03
:1014E000C742B2EBC74261EB57310CFB0EF7B0EBD2
:1014F000C70072EB57720CFB08F734BFA2EBC702B0
:10150000B2EBC70261EB577115EB4C254FEA8161D5
:1015100041EA92114FEA82624FEAD13742EA9012D1
:1015200006FB07FC44F100044FEA80604FEA1C4CC4
:101530000CFB0BF7D21B03FB0CF761EB07010CFB59
:101540000EF7B0EB074072EB17420CFB08F734BF05
:10155000A2EB0742B2EB074261EB174115EB1C15FA
:101560004FEA813141EA92414FEA823242EA9042A7
:101570004FEA80304FEA0C7644F1000448EA034316
:101580004EEA0B484FF0000EB2EB080C71EB03076C
:1015900024BF624639464EEB0E0E4FF0000B00188A
:1015A000524149414BEB0B0BB2EB080C71EB0307BB
:1015B0007BF1000B24BF624639464EEB0E0E4FF016
:1015C000000B0018524149414BEB0B0BB2EB080CDE
:1015D00071EB03077BF1000B24BF624639464EEBEB
:1015E0000E0E51EA020718BF46F0010616EB0E7602
:1015F00055F1000254F1000103D5BDE88901BDE8B1
:101600000088BDE88901BDE80048B619524141EBA8
:101610000101A3F10103704780807F7E7D7C7B7A8E
:101620007978777676757473727171706F6E6E6D8E
:101630006C6C6B6A6A696868676666656464636334
:1016400062616160605F5F5E5E5D5D5C5C5B5B5ABA
:101650005A59595858575756565555555454535327
:1016600052525251515050504F4F4F4E4E4D4D4D82
:101670004C4C4C4B4B4B4A4A4A49494948484847CD
:10168000474747464646454545444444444343430B
:101690004342424242414141002B26D4770021D0AF
:1016A0001CB54FEA370703B44FF010004FF010019C
:1016B0004FF000000FBCBDE810400BF1010BBBF177
:1016C000010F08BF5FEA170722BF12F1010211F1F3
:1016D00001014FF0004143F1000300F0004043EAF4
:1016E00000007047F9D35708DAE746EA064613F1D7
:1016F000400F4FEA16461FDD13F1200FDFBF1643E0
:101700000A46002120335B42C8D0C3F1200746EAD5
:10171000064602FA07F74FEA164646EA0706C3F1FD
:10172000200722FA03F201FA07F721FA03F14FF03A
:10173000000342EA0702B1E746EA020646EA064625
:101740004FEA164646EA0106BCBF46EA0646360C94
:101750004FF000034FF000024FF000019EE72DE92B
:10176000C048934630B491E8380007C831EA400CCD
:1017700048BF34EA430C03D5FFF7F2FDFFF78CFFB7
:10178000F0BCBDE800882DE9C048934630B491E82C
:10179000380007C810F0804F08BF13F0804F03D106
:1017A00000F005F8FFF778FFF0BCBDE8008820F0F6
:1017B0007F4780EA030023F07F4C07EB0C03A3F57F
:1017C0007C5300F00040A3F1FE0392F0000F00F004
:1017D000B38095F0000F00F077802DE901494FEAC2
:1017E00011404FEA144621EA004800FB06FC24EAB7
:1017F000064708FB06F607FB08F800FB07F718EB9F
:1018000006484CEB164C4FEA124B18EB07484FEAD0
:1018100015464CEB174022EA0B4E0BFB06FC25EA63
:1018200006470EFB06F607FB0EFE0BFB07F71EEB4B
:10183000064E4CEB164C4FF000061EEB074E4CEBE1
:10184000174B18EB0B0840F1000018EB0E0B58EB90
:10185000000840F100008F1A4FF000013CBFC9435F
:10186000661B14BFB5EB040C00213CBFC943F61B3B
:101870004FEA17444EEA8E0E27EA04454FEA1C470A
:1018800004FB07622CEA074C05FB07F70CFB05F687
:1018900004FB0CFC16EB074642EB174216EB0C461A
:1018A00042EB1C421BEB060658EB0202414146EAA2
:1018B0009E0601D5BDE80189B619524141EB0101EF
:1018C000A3F10103BDE801894FEA14454FEA11472E
:1018D00024EA054621EA074C05FB07F406FB07F757
:1018E0000CFB06F105FB0CFC11EB074144EB174424
:1018F0004FEA124711EB0C4144EB1C4422EA074C1F
:1019000005FB07F206FB07F70CFB06F605FB0CFCD4
:1019100016EB074642EB174216EB0C4642EB1C4512
:101920006A1854F1000148BF7047B619524141EBA3
:101930000101A3F10103704795F0000F37D04FEA82
:1019400011424FEA144721EA024624EA074C02FBFF
:1019500007F106FB07F70CFB06F402FB0CFC14EB8B
:10196000074441EB17414FEA154714EB0C4441EB98
:101970001C4125EA074C02FB07F506FB07F70CFBA9
:1019800006F602FB0CFC16EB074645EB174516EB7B
:101990000C4645EB1C42121951F1000148BF70473B
:1019A000B619524141EB0101A3F1010370474FEA1F
:1019B00014454FEA114724EA054621EA074C05FB86
:1019C00007F106FB07F70CFB06F24FF0000605FBDC
:1019D0000CFC12EB074241EB174112EB0C4251EBAE
:1019E0001C4148BF7047921841EB0101A3F101036C
:1019F0007047490050EAC12000D004204A0D01D0B0
:101A000040F0010040F2FF72B2EB515F01D140F0B3
:101A10000200012800D105207047000010B5002900
:101A20000AD00878002807D005487844FFF7DCFB87
:101A3000002801D0002010BD0248784410BD0000ED
:101A40007A1000007210000001F0004321F0004104
:101A500081EA410212F0FE4F08BF12F4600F00F05D
:101A60002880A1F16051B1F5801F1BDB02014FF00E
:101A7000404C09D803D208BF4FF0000C0AE000F038
:101A800000521CEB820C05D410F100504FF0804C3A
:101A900041F10001B1F17F6F06DA43EAC10343EA85
:101AA00050707047184670474FF0FF0243EAC2502B
:101AB000704711F4801F01D118467047DFF818C035
:101AC00041EA030150EA013240F0EC80AFF30080BC
:101AD00021F4E000704700008800000410B591EA8E
:101AE000030F48BF83F0004300F11E84841A71EB9A
:101AF000030E05D2121943EB0E03001B61EB0E011E
:101B0000DFF880C14FEA1154A4EB135E1CEA430FC7
:101B100018BF9CEA445F7DD023EA0C0321EA0451FC
:101B200043F48013DEF1200C38D322FA0EFC10EBC4
:101B30000C0023FA0EFC41EB0C01CEF1200C03FA51
:101B40000CFC10EB0C0051F10001B1F5801FCEF13F
:101B5000200C38D201EB0451BDE8104012FA0CF20F
:101B600058BF7047401C38BF5FEA420218BF704739
:101B7000002814BF20F0010041F100014FEA4103A9
:101B800013F5001F38BF704728BFB1F1C0413E496F
:101B90004FF0000048BF41F000417047012A43EB7D
:101BA0000302AEF1200EDEF11F0C32BF4FF0000C2D
:101BB00023FA0EF310EB030041EB0451B4EB115F79
:101BC000CAD0A1EB045101F58011490801EB045181
:101BD000BDE810405FEA30000CD350F1000038BF80
:101BE00012FA0CFC06D1C3E7401C38BF5FEA420280
:101BF000C4D1BDE74FEA410313F5001F38BF70475A
:101C000028BFB1F1C04120494FF0000048BF41F06A
:101C1000004170479CEA445F08D0BDE8104011EADB
:101C20005C0F04BF01F0004100207047012841EB28
:101C30000104012A43EB030E644598BFE645DFF833
:101C40004CC0BDE8104000F22580AFF300800128B1
:101C500041EB0100012A43EB0302904208D010F54A
:101C6000001F04BF0020704719464FF00000704766
:101C700091EA030F4FF0000058BF704704494FF03E
:101C8000000070470000E0FF0000F07F110000043A
:101C90000000F87F02494FF0000000F05EBE000037
:101CA0000000F87F02494FF0000000F056BE00002F
:101CB0000000F87F4FF0807212EB400F98BF12EBDC
:101CC000410F1DD8AFF3008050EA010204D48842CE
:101CD0000DD6EFF3008070478142EFF3008020F0D3
:101CE000104038BF40F0004080F3008870474FF04C
:101CF000010238BF022A68BF002AEFF30080704754
:101D00001CF4502F00F0CA8400F059BE70B5DFF803
:101D1000ECC33CEA111418BF3CEA131400F09B809A
:101D200081EA03050CEA111444EAD5741CEA131580
:101D300018BF11EA0C1F00F074804FEAC1214FEA6E
:101D4000C32341EA505143EA5253A4EB050404F182
:101D50007F7441F0004143F000434FEAC0204FEA56
:101D6000C22200F0A9F846054FEAD02003EB244335
:101D700040EA41504FEAD12101EB035282EAC4719B
:101D800016D05FEA460E38BF4FF0404610D314BF5E
:101D900000234FF0004350F1000041F1000110EA30
:101DA000D37F4FF0804620EAD37018BF4FF04046F3
:101DB00091EAC47FDFF848E316D412EA0E0F18BF89
:101DC0003EEA010E10D070BDE50754BF1EF4000FAF
:101DD0001EF4800F0ABF4FF080464FF0404610F1CE
:101DE000010041F10001E3E7B4F1806FDEBF01F1D2
:101DF000C04101F00041002000DC70BDA8BFA1F18E
:101E0000C04146F0140CA8BF4CF0805CBDE87040A7
:101E10006FF0000041EA500181EA10314FF00000FC
:101E2000704711EA0C1F00D00AE013EA0C1F00F003
:101E30003D804FF0000081EA030101F0004170BDD8
:101E40006FF0000081EA030141EA500181EA10319C
:101E50004FF0000070BD4FEA410EBEEB4C1F4FEA41
:101E6000430508BF002898BFB5EB4C1F08BF002AE8
:101E7000BDE87040DFF88CC23FF60CAFAFF30080D6
:101E80004FF4001C1CEB410F09D11CEB430F0FD08A
:101E90004B4021F0004148BF41F0004170474FF0F6
:101EA000000081EA030303F000417047BDE8704081
:101EB0004FF0000094497047E0B5054610B40C4659
:101EC0000FF238114FEA430C4FF0010E4FEA9C6CB1
:101ED00051F82CC04FF00001ACFB02604FF000063F
:101EE000ECFB0301001841EB0101301A66EB010124
:101EF000E1FB0C6C4FF00001ACFB02604FF0000600
:101F0000ECFB0301001841EB0101301A66EB010103
:101F1000E1FB0C6C4FF00001ACFB0560ECFB040135
:101F2000A2FB0167E3FB006E17EB0E074FF0000EFC
:101F3000E3FB017E4EF1000EB6197F414EEB0E0E13
:101F4000764275EB070764EB0E0EECFB0E01ACFB63
:101F500007E64FF0000E801941F10001A2FB006777
:101F6000B619E2FB017EE3FB007E7F4103FB01EE3D
:101F70004EEB0E0E76424FF0000676EB070765EB50
:101F80000E0EACFB0E674FF0000E4FEA857C4FEA59
:101F90009505C01941F1000145EA847549084FEAE9
:101FA0003000A2FB00677642E2FB017EE3FB007E8D
:101FB0007CEB070703FB01EE65EB0E0EB51A77EB22
:101FC00003047EF1000E24BF2E46274650F1000088
:101FD00041F10001012E38BF012F404141EB0101C9
:101FE00011F0004F18BF022301D0F0BC00BDF0BCBF
:101FF0004FF00103001841EB010100BDFCC00FFCD4
:10200000830F3EF85F8D89F4F0F0F0F0B50373EDC7
:10201000EAA00EEA48B4C2E6E3388EE31C3870E06A
:10202000A6C867DDA70D74DAE53594D7037BC7D45E
:10203000D2200DD2A87464CFCCCCCCCCE68745CAD4
:102040007C0CCEC77BC865C5C3300CC3C0C0C0C044
:102050000BFA82BE0B6452BCA28B2EBAE00217B8F8
:10206000B6600BB6B4400BB4C84216B2020B2CB02B
:102070005C414CAE849176ACAAAAAAAA573FE8A8C4
:1020800039052FA702B57EA53D0AD7A32BC337A2DA
:10209000A0A0A0A0E765119F9DD8899D9CC0099C28
:1020A000D9E7909A511A1F99ED25B4976CDA4F969B
:1020B0004F09F294C4859A939224499209BCFD90E9
:1020C000EE23B88F6D35788E08CB3D8D8CC0088C93
:1020D000FBF2D88A8940AE89888888885FAB678799
:1020E0007D8A4B865308348542082184976E12837B
:1020F0008220088208040281000000800000FF079F
:102100000000F07F140000040000F87F10F000438E
:1021100014BF4142014643F08043B1FA81FC03F110
:10212000F87311FA0CF1A3EB0C534FEA415008BFBE
:10213000704703EBE1217047DFF8B4C170B53CEAAA
:10214000111E18BF3CEA131E00F0A68081EA0305A9
:102150000CEA111E4EEAD57E1CEA131518BF11EACF
:102160000C1F00F08F80AE4421EA4C1123EA4C137F
:10217000AEF17F7E41F4801143F48013A1FB024C49
:10218000A0FB0365361955EB0C05A1FB034C4CF184
:102190000003A0FB021C16EB0C06654153F1000383
:1021A000094218BF46F001064FF0140CB3F5007F4A
:1021B0004CF1000CCCF1200425FA0CF203FA04F1E6
:1021C00041EA020105FA04F026FA0CF240EA0200A4
:1021D0006FF0030242EB2E4216FA04F401EB0255B3
:1021E00085EACE7115D05FEA440C38BF4FF0404409
:1021F0000FD308BF43F0004350F1000041F100014C
:1022000010EAD37F4FF0804420EAD37018BF4FF01C
:10221000404415F0004FDFF8DCC017D415EA0C0F6E
:1022200018BF3CEA010C11D070BD5FEACE7454BFF8
:102230001CF4000F1CF4800F0ABF4FF080444FF0D5
:10224000404410F1010041F10001E2E7BEF1806F6E
:10225000A2BFA1F1C04144F0130C4CF0805CBDE87A
:10226000704006DA4FF0000001F1C04101F000417A
:1022700070476FF0000041EA500181EA10314FF0E1
:10228000000070474FEACE714FF0000070BD4FEA7A
:10229000CE714FF0000070BD4FEA4105B5EB4C1F09
:1022A0004FEA430608BF002898BFB6EB4C1F08BF93
:1022B000002ABDE87040DFF840C03FF6EBACAFF35A
:1022C00000804FF4001CBCEB410F98BFBCEB430FE8
:1022D0000AD84FF0000081EA030101F0004141F00B
:1022E000FE4141F47001704704494FF0000070470F
:1022F0000000FF070000F07F130000040000F87FDB
:1023000091EA030F10B581F000413FF5EFAB83F088
:10231000004300F009B8000010B591EA030F48BF70
:1023200083F000433FF5E2AB841A71EB030E07D252
:1023300012198EF0004E43EB0E03001B61EB0E01F1
:10234000DFF810C24FEA1154A4EB135E1CEA430FEE
:1023500018BF9CEA445F00F0C58023EA6C03524238
:1023600021EA0451C3EB6C0338BF5B1EDEF1200C85
:1023700029D322FA0EFC10EB0C0043FA0EFC41EBC1
:102380000C01CEF1200C03FA0CFC10EB0C0051F107
:102390000001CEF1200C2DD401EB0451BDE810401A
:1023A00012FA0CF24FF0120C4CF0804C58BF7047F0
:1023B000401C1CBFB2F1004F704700280CBF491CE5
:1023C00020F00100704712EB020C43EB030218BF30
:1023D0004FF0010C4CEA4202AEF1200EDEF11E0C71
:1023E00063D943FA0EFC10EB0C0051F1FF31CEF132
:1023F0001E0CD1D50CF1010C12FA0CFC404141EB42
:10240000010101EB445E5FEA5E5E10D901EB04510D
:10241000BDE8104010EBDC7038BFBCF1004F18BFB6
:10242000704700280CBF491C20F0010070473FD2C4
:1024300011F5001108BF002801D1BDE810403FD0C0
:102440004FEAD42E24F40064B1FA81F2202AA4F1D8
:10245000020404BFB0FA80F3D218A2F10B02B2F169
:102460002003A4EB02040CD2C2F1200301FA02F112
:1024700020FA03F341EA030100FA02F0C2F120035B
:1024800003E000FA03F14FF0000001EBCE71002CE5
:1024900001EB0451BDE81040A8BF704701F1C041F5
:1024A0004FF0000001F00041704701EB045110BDF6
:1024B000491001EB0451BDE810404FEA300002E042
:1024C0004FF0000170474FF0120C4A0008BF004265
:1024D000F6D0B2F5001F28BF704701F000414FF061
:1024E000000070479CEA445F07D0BDE8104011EA45
:1024F0005C0F04BF002100207047012841EB01045C
:10250000012A43EB030E644598BFE645DFF848C057
:10251000BDE810403FF6BEABAFF30080012841EBB1
:102520000100012A43EB0302904209D010F5001F7D
:1025300004BF0020704783F000414FF00000704757
:1025400091EA030F4FF0000048BF704703494FF076
:10255000000070470000E0FF120000040000F87F58
:10256000094248BF4CF4803C4FF4C0634FEA11521B
:1025700003F1010321EA025122F400629A1A48BFD2
:102580006FF0FE0241F48011352A3CD830D0152A74
:102590001ED3203A0CD90028C2F1200321FA02F000
:1025A00001FA03F218BF42F001024FF0000130E0DF
:1025B000C2F1000302F1200201FA03F120FA02F253
:1025C00041EA020100FA03F208464FF0000120E060
:1025D000C2F1200310B400FA03F401FA03F320FA65
:1025E00002F021FA02F1224610BC43EA000010E09A
:1025F00050EA01324FF000004FF000014FF000426E
:1026000018BF521C05E04FF001024FF000014FF0DF
:1026100000001CF4803F2CF4803C18BF41F00041C6
:10262000124208BF7047520003D303D0401C41F14F
:10263000000170475FEAAC72F8D4FAD1401C41F156
:10264000000120F00100F4E77047704700F5000C2E
:102650001CF0FE4F09D0C1104FEA407001F16051EB
:1026600058BF7047A1F1E04170471CF4000F08D03B
:102670000146400008BF70474FF000004FEA3001AC
:102680007047DFF814C0420240F00E80AFF30080C4
:1026900040F4E0011046704718000004014800F0C3
:1026A0005CB900000000C07F014800F056B900008E
:1026B0000000C07F50EA010C00F113801CF5000FF0
:1026C00058BFBCF5000F01D48842704707D710F5FA
:1026D000000F58BF11F5000F15D48842704789428A
:1026E00070471CF5000F04D5BCF5000FF7D58142EB
:1026F00070474FF0807C1CEB400F38BF1CEB410F44
:1027000001D281427047DFF808C0FFF7D3BA00005A
:10271000090016044FF47F0C1CEAD0121EBF1CEAFD
:10272000D11392EA0C0F93EA0C0F00F04A8090EA62
:10273000010F48BF42F480724FF0004C4CEA002079
:102740004CEA01211A44A0FB01C3A2F50002BCF12E
:10275000000F18BF43F0010302F4807CB3F1004F77
:1027600038BF5B0042EB2242180A40EBC25028BF40
:1027700013F07F0F18BFB2F57C0F38BF704708BF4A
:1027800020F00100B2F57C0F38BF70470BD582F006
:10279000FF0212F5803FC8BF704700F1C040D8BFAC
:1027A00000F00040704700F5000C5FEA4C0C48BF99
:1027B0007047B0F1C0404FF07F404CBF4010400820
:1027C000704790EA010F0CEAD11348BF42F48072BF
:1027D000624538BF634504D280EA010000F0004042
:1027E00070474FF0807C1CEB400F98BF1CEB410FF3
:1027F0004FF0030C4CF0806C3FF650AFAFF300800D
:1028000012F47F0F1FBF13F47F0F42F0FF02D005B9
:1028100070470148704700000000C07F10B412F4F8
:102820007F0F4FEA00204FEA012110D1B0FA80F467
:1028300000FA04F0A2EB044213F47F0F02F5803299
:1028400018BF41F0004100D010BC18BF604740F0F5
:102850000040B1FA81F401FA04F1A3EB044310BC87
:1028600003F580336047000051EA000C00F113804B
:102870001CF5000F58BFBCF5000F01D48142704712
:1028800007D711F5000F58BF10F5000F15D481427E
:102890007047894270471CF5000F04D5BCF5000F46
:1028A000F7D5884270474FF0807C1CEB410F38BF52
:1028B0001CEB400F01D28842704781EA000080EA99
:1028C0000101DFF80CC081EA0000FFF7F3B9000056
:1028D0000900160400F0004343EAD05323F4807348
:1028E000C3F1C10323F0004117291FD8C3F120030E
:1028F00010FA03F1C3F1200320F07F4040F4000000
:1029000020FA03F003F0004340EA03000DD00B4629
:10291000590009D318BF401C06D17FEAE27398BF63
:10292000401C38BF20F0010070477047182903EBA6
:10293000912318BF6FF00041013168BF03F00040E0
:1029400009D6400203F0004000F1010004BF12F07C
:10295000004F20F00100704770470CF00F03092B67
:1029600008BF082000F02B800A2B0BD0082B18BFC3
:10297000704708BF1CF0400F0AD04FF000004FF026
:10298000000170471CF0400F18BF4FF00040704727
:102990001CF0100F08D020F0704300F07F4242EA94
:1029A000D3014FEA4370704700F0604021F07F424E
:1029B00042EA000201F07F4040EA727070471CF466
:1029C000801F11D01CF4E02F03D06FEACC314900F6
:1029D00070474FF04050EFF3008222F0704242EA1D
:1029E000000282F3008870474FF000007047040037
:1029F00000080000000000000002000100001000BC
:102A000002400000000000A000000000054000009F
:102A1000000000C8000000000C4000000000409CC6
:102A200000000000194000000020BCBE00000000B3
:102A300034400000BFC91B8E00000004B5400000F8
:102A4000504BCFD06607E2CF010000006C41000080
:102A50003E8251AADFEEA73401000000D9420000F7
:102A6000DCB5A0E23A301F97FFFFFFFFB44500003E
:102A7000FD25A0C8E9A3C14FFFFFFFFFFF3F0000F6
:102A80000000008000000000FF3F00000000008008
:102A900000000000C02A00000000001060020000DA
:102AA000000100001C00000043000000F8FFFFFFD1
:102AB0000C0000000E0000000F0000002E000000BF
:04000005000000C532
:00000001FF
